:020000022000DC
:10700000000004205D730200B9730200BB7302002C
:10701000BD730200BF730200C173020000000000D4
:10702000000000000000000000000000C373020028
:10703000C573020000000000C7730200C97302009C
:1070400001A90300CB730200513103002582030024
:107050003D820300CB73020049300300FD9503001D
:10706000E14A0300F94A0300114B0300CB7302000D
:10707000CB73020089350300CB730200CB7302008F
:10708000CD6B0300D17E0200CB730200CB730200F4
:10709000CB730200CB730200A5150700CB7302006F
:1070A000CB730200CB730200294B0300414B03005A
:1070B000CB730200CB730200000000000000000050
:1070C000CB730200CB730200CD8D0300CB730200A3
:1070D000E5DE0300CB730200CB73020055CC030046
:1070E000A9690300CB730200CB730200000000000B
:1070F00000000000CB7302000000000011420300FA
:10710000000000000000000000000000000000007F
:10711000000000000000000000000000000000006F
:10712000000000000000000000000000000000005F
:10713000000000000000000000000000000000004F
:10714000000000000000000000000000000000003F
:10715000000000000000000000000000000000002F
:10716000000000000000000000000000000000001F
:10717000000000000000000000000000000000000F
:1071800000000000000000000000000000000000FF
:1071900000000000000000000000000000000000EF
:1071A00000000000000000000000000000000000DF
:1071B00000000000000000000000000000000000CF
:1071C00000000000000000000000000000000000BF
:1071D00000000000000000000000000000000000AF
:1071E000000000000000000000000000000000009F
:1071F000000000000000000000000000000000008F
:10720000354936480A1A02D0072291438D4634493F
:1072100034480A1A06D00722914381F309880222D2
:1072200082F3148830483149314A00F044F831483B
:107230003149324A00F03FF831483249324A00F0D1
:107240003AF832483249334A00F035F83248334987
:10725000334A00F030F833483349344A00F02BF811
:1072600033483449344A00F026F83448344900227F
:1072700000F02CF833483449002200F027F8334856
:107280003349091A082902DB002202604160314AB1
:1072900090471F481F49884205D00268043003B454
:1072A000904703BCF7E700208646EC46002000210B
:1072B000294A9047FEE7884207D0521A05D0037842
:1072C00001300B700131013AF9D17047884202D088
:1072D00002700130FAE770470000042000E003204C
:1072E0000000042000000420F061080028000120B4
:1072F00040090120D0730200D0730200709A070089
:10730000F06108002800012028000120449B0700AC
:10731000449B0700449B0700449B0700449B0700D5
:10732000449B0700449B0700449B0700F061080052
:10733000086B080040090120400901204009012094
:1073400030500120305001203450012034500120B1
:107350003470012085730200F9DE030000F036B8B6
:107360000F484FF00701884385460E4880470E4876
:10737000016841F470010160BFF34F8FBFF36F8F5D
:10738000FFF73EBF09480A490A4A884207D0521A05
:1073900005D0037801300B700131013AF9D1704703
:1073A000000004203D11040088ED00E01C9B070054
:1073B0000000012028000120FEE7FEE7FEE7FEE7CF
:1073C000FEE7FEE7FEE7FEE7FEE7FEE7FFF7C8BFE2
:1073D000004870472850012052F078BA00B583B0B9
:1073E00002900091019244F2010071466A461BF03E
:1073F000A7FE03B000BD00BF84B00190019B9B6855
:107400000393019BDA68039BD31A184604B07047B4
:1074100082B001900B468DF80330019B1A68019BE6
:10742000DB68019989880B4013449DF803201A708A
:10743000019BDB685A1C019BDA6000BF02B07047F9
:1074400084B003900B460192ADF80A30039B1A6892
:10745000039B9968BDF80A300B44039989880B4057
:1074600013441A78019B1A7000BF04B0704700B52E
:1074700083B001900091009A00210198FFF7E0FF8E
:10748000019B9B685A1C019B9A6000BF03B05DF88A
:1074900004FB84B0039002911346ADF80630029BC2
:1074A000002B01D10E231DE0BDF80630002B07D0C4
:1074B000BDF806305A1EBDF806301340002B01D02F
:1074C00009230FE0039B029A1A60BDF80630013BC6
:1074D0009AB2039B9A80039B00229A60039B00222E
:1074E000DA600023184604B0704700B583B00190FD
:1074F0000B468DF803300198FFF77EFF0246019B93
:107500009B889A4207D89DF8033019460198FFF7E7
:107510007FFF002300E00423184603B05DF804FB5E
:1075200000B583B0019000910198FFF765FF034615
:10753000002B05D000990198FFF799FF002300E088
:107540000523184603B05DF804FB000082B0034633
:107550008DF807309DF90730002B09DB0B4A9DF9A8
:107560000730134493F80033DBB25B09DBB20AE067
:10757000074A9DF8073003F00F03043B13441B7EBA
:10758000DBB25B09DBB2184602B0704700E100E0F5
:1075900000ED00E082B0EFF310830093009B0193B5
:1075A00072B600BF019B184602B0704762B600BFBA
:1075B00000BF704700B585B00190FFF7EBFF039067
:1075C000164B9B68002B1BD1144B01229A60144B65
:1075D000D3F88020134B1340104A1360104B114A0C
:1075E000C3F880200E4BD3F884300C4A53600C4B08
:1075F0004FF0FF32C3F88420019B00221A7002E092
:10760000019B01221A70039B002B01D1FFF7CEFFD3
:107610000023184605B05DF804FB00BF40090120B7
:1076200000E100E0FC06FFBD00B585B003468DF823
:107630000730104B9B68002B16D09DF80730002BAD
:1076400012D1FFF7A7FF03900B4A0A4B1B68136088
:10765000094A084B5B685360064B00229A60039B03
:10766000002B01D1FFF7A2FF0023184605B05DF8FB
:1076700004FB00BF4009012000E100E000B583B039
:10768000019000F02BF80346012B03D0054943205D
:107690004CF0A6FF0198FFF78DFF00BF03B05DF827
:1076A00004FB00BF449B070000B583B003468DF880
:1076B000073000F013F80346012B03D00649512090
:1076C0004CF08EFF9DF807301846FFF7ADFF00BF66
:1076D00003B05DF804FB00BF449B070084B0EFF3E8
:1076E00005830193019BC3F308030393039B002BC2
:1076F0000DD1EFF314830093009B0293029B03F0E0
:107700000103002B0CBF01230023DBB200E00123A7
:10771000184604B0704700B585B0EFF305830193B8
:10772000019BC3F308030393039B002B0AD0039B25
:10773000103B0293029B5BB21846FFF707FF03461C
:10774000DBB200E00F23184605B05DF804FB000033
:1077500082B003468DF807309DF90730002B0CDB13
:107760009DF8073003F01F0205499DF907305B09BA
:10777000012000FA02F241F8232000BF02B0704756
:1077800000E100E082B003468DF807309DF9073034
:10779000002B0DDB9DF8073003F01F0206499DF911
:1077A00007305B09012000FA02F2403341F8232040
:1077B00000BF02B0704700BF00E100E082B00346A6
:1077C00000918DF807309DF90730002B0ADB009BF4
:1077D000DAB20C499DF907305201D2B20B4483F85A
:1077E00000230BE0009BDAB207499DF8073003F055
:1077F0000F03043B5201D2B20B441A7600BF02B011
:10780000704700BF00E100E000ED00E000B583B08C
:1078100003460A468DF8073013468DF806309DF86A
:107820000630012B03D99DF80630032B0BD99DF8A8
:107830000630042B03D99DF80630072B03D90849DD
:107840006B204CF0CDFE9DF806209DF907301146C7
:107850001846FFF7B3FF00BF03B05DF804FB00BF9D
:10786000A49B070000B583B003468DF807309DF94F
:1078700007301846FFF76CFF00BF03B05DF804FB4C
:1078800000B585B00190019B002B0AD0074B43F057
:1078900001030393019B9B010293039B029898476A
:1078A00000E000BF05B05DF804FB00BF609C07006E
:1078B00084B0039002910192039B029A02F5A87290
:1078C000019943F8221000BF04B0704782B00190C4
:1078D0000091019B009A02F5A87253F822301846D5
:1078E00002B0704782B001900091019B009AC3F8EA
:1078F000042300BF02B0704782B001900091019B49
:10790000009AC3F8082300BF02B0704782B001900C
:107910000B46ADF80230BDF80230019A13441B68E3
:10792000184602B0704784B001900B46ADF80230A3
:10793000BDF80230019A134400221A60BDF80230EB
:10794000019A13441B680393039B00BF04B0704764
:1079500082B00190019BD3F80435184602B07047FD
:1079600000B583B001900091009BB3F5805F04D314
:1079700006494FF4BE704CF033FE019B009AC3F8E9
:10798000082500BF03B05DF804FB00BFD49B0700CF
:1079900082B001900B468DF803309DF80320019BC7
:1079A00013441A460123136000BF02B0704782B02F
:1079B00001900091019B009AC3F8442300BF02B0DC
:1079C000704782B001900091019B009AC3F8482350
:1079D00000BF02B07047000000B587B0039002916D
:1079E0000192039B002B03D1284955204CF0F8FD50
:1079F000029B002B03D1254956204CF0F1FD019B41
:107A0000002B03D1214957204CF0EAFD039B5B7901
:107A100019461F4A019B42F82130039B5B791D4A9E
:107A2000DB0013441B79002B03D008230593059B2F
:107A300027E0039B1A68029B1B8819461046FFF734
:107A40008FFF039B93F90420029B9B7819461046F5
:107A5000FFF7DCFE039B93F904301846FFF702FFA3
:107A6000039B5B790B4ADB00134401221A71039BD1
:107A70005B791946074A039B42F83130002305938E
:107A8000059B184607B05DF804FB00BF049C070087
:107A90004C0901205009012000B583B00190019BE1
:107AA000002B03D1064987204CF09AFD019B1B68EF
:107AB00000211846FFF76CFF00BF03B05DF804FB20
:107AC000049C070000B583B00190019B002B03D1FB
:107AD00006498D204CF084FD019B1B68042118464B
:107AE000FFF756FF00BF03B05DF804FB049C0700DE
:107AF00000B587B00390029101928DF80330039B8B
:107B0000002B03D1214996204CF06AFD4FF48032BE
:107B1000029B02FA03F30593029B50339BB29B0036
:107B2000ADF81230019B23F07F430193039B1B6848
:107B300005991846FFF7E0FE039B1B680599184658
:107B4000FFF73FFF039B1B68BDF812201146184644
:107B5000FFF7E9FE039B1B68019A02991846FFF79D
:107B6000A7FE039B1B6805991846FFF720FF9DF8A9
:107B70000330002B05D0039B1B6805991846FFF7BF
:107B8000B1FE00BF07B05DF804FB00BF049C070016
:107B900000B585B00390029113468DF80730039B22
:107BA000002B03D10B49A9204CF01AFD039B1B6845
:107BB00002991846FFF7FBFE9DF80730002B05D011
:107BC000039B1B6802991846FFF78CFE00BF05B0A7
:107BD0005DF804FB049C070000B583B001900091A0
:107BE000019B002B03D10A49B3204CF0F9FC019B07
:107BF0001B6800991846FFF7E4FE019B1B6800997B
:107C00001846FFF779FE00BF03B05DF804FB00BF24
:107C1000049C070000B583B001900B46ADF802301C
:107C2000019B002B03D10F49BA204CF0D9FC019BDA
:107C30001B68BDF8022011461846FFF767FE034691
:107C4000002B09D0019B1B68BDF802201146184685
:107C5000FFF769FE012300E00023184603B05DF83A
:107C600004FB00BF049C070082B001900091019AC0
:107C7000009BD31A23F07F43184602B070470000E0
:107C800000B58BB00390029101920093039B002BEF
:107C900003D15749CD204CF0A3FC4FF48032029B16
:107CA00002FA03F30993029B50339BB29B00ADF899
:107CB0002230019B23F07F43019309990398FFF73A
:107CC0008BFF039B1B681846FFF742FE0790039B40
:107CD0001B6802991846FFF7F9FD0690039B1B6885
:107CE000079A02991846FFF7E3FD039B1B68BDF84E
:107CF000222011461846FFF716FE07990698FFF74F
:107D0000B3FF0346012B0AD11020FFF7B9FD039BF7
:107D10001B68BDF8222011461846FFF704FE039B9E
:107D20001B681846FFF714FE079007990198FFF7A4
:107D30009BFF0590039B1B6809991846FFF737FEC8
:107D4000059B012B15D1039B1868019B01331A4633
:107D50000299FFF7ADFD1020FFF792FD039B1B6812
:107D60001846FFF7F5FD0246079B934235D00D23D9
:107D700039E0039B1B68019A02991846FFF798FDAA
:107D8000039B1B681846FFF7E3FD0790019B013B2F
:107D900007991846FFF768FF0590009BC3F1FF1392
:107DA00003F57F43059A9A4201D90D231BE0059BF9
:107DB000002B12D1039B1868019B01331A460299CC
:107DC000FFF776FD039B1B681846FFF7C1FD0246CF
:107DD000079B934201D00D2305E0012209990398E6
:107DE000FFF7D6FE002318460BB05DF804FB00BF7A
:107DF000049C070000B583B001900B468DF803305A
:107E00009DF803301A4602210198FFF7C1FE00BF1A
:107E100003B05DF804FB00B583B001904FF48271AC
:107E20000198FFF7F7FE0346184603B05DF804FB20
:107E300000B583B0019000914FF48032009B02FAAC
:107E400003F319460198FFF7C7FE00BF03B05DF8C2
:107E500004FB00B585B001900091009B50339BB2AC
:107E60009B00ADF80E30BDF80E3019460198FFF7B3
:107E7000D1FE0346184605B05DF804FB00B583B09B
:107E800001900091019B1B6800991846FFF71EFDA9
:107E90000346184603B05DF804FB00B583B00190BB
:107EA000019B1B681846FFF753FD0346184603B0B5
:107EB0005DF804FB00B583B00190019B93F9043099
:107EC0001846FFF75FFC00BF03B05DF804FB00003D
:107ED00008B5044B1B68044A12681046984700BF57
:107EE00008BD00BF4C0901205009012010B487B023
:107EF00001900091019B009A53E8004F104643E81F
:107F0000000191F0000FF7D1059404900391059BB7
:107F1000184607B05DF8044B704710B487B0019065
:107F20000091019B009A53E8004F44EA020043E8A5
:107F3000000191F0000FF6D1059404900391059B88
:107F4000184607B05DF8044B704710B487B0019035
:107F50000091019B009A53E8004F44EA020043E875
:107F6000000191F0000FF6D1059404900391049B59
:107F7000184607B05DF8044B704710B487B0019005
:107F80000091019B009A53E8004F04EA020043E885
:107F9000000191F0000FF6D1059404900391059B28
:107FA000184607B05DF8044B704710B487B00190D5
:107FB0000091019B009A53E8004F04EA020043E855
:107FC000000191F0000FF6D1059404900391049BF9
:107FD000184607B05DF8044B704710B487B00190A5
:107FE0000091019B009A53E8004F04EB020043E824
:107FF000000191F0000FF6D1059404900391059BC8
:10800000184607B05DF8044B704710B487B0019074
:108010000091019B009A53E8004F04EB020043E8F3
:10802000000191F0000FF6D1059404900391049B98
:10803000184607B05DF8044B704710B487B0019044
:108040000091019B009A53E8004FA4EB020043E823
:10805000000191F0000FF6D1059404900391049B68
:10806000184607B05DF8044B704710B487B0019014
:108070000091019B009A53E8004F94422CBFA01A34
:10808000204643E8000191F0000FF4D105940490DC
:108090000391049B184607B05DF8044B704700B588
:1080A00083B0019001210198FFF737FF034618467E
:1080B00003B05DF804FB00B583B001900021019886
:1080C000FFF75BFF0346184603B05DF804FB00B5FD
:1080D00085B0039002910192039B002B01D10E23E6
:1080E0000EE0029B002B01D10E2309E0039B029AB4
:1080F0001A60039B1B681B68019903989847034605
:10810000184605B05DF804FB10B584B003900291E9
:1081100001920093039B002B01D10E232AE0019BC7
:10812000002B01D10E2325E0039B1B68002B01D1FE
:1081300008231FE0009B002B01D109231AE00298BD
:1081400000F006F90346002B01D1102312E0009A3B
:108150000299039800F0E2F80346002B01D11023A6
:1081600008E0039B1B689C68009B019A0299039896
:10817000A0470346184604B010BD10B586B0059060
:10818000049103920293059B002B01D10E2342E040
:10819000039B002B01D10E233DE0059B1B68002BA8
:1081A00001D1082337E0029B002B01D1092332E0E3
:1081B000059B5B685A68029BB3FBF2F101FB02F27C
:1081C0009B1A002B01D0092325E0049800F0C0F889
:1081D0000346002B01D110231DE0039B184600F03D
:1081E000B7F80346002B01D1102314E0029A04993A
:1081F000059800F093F80346002B01D110230AE004
:10820000059B1B68DC68089B0093029B039A0499FA
:108210000598A0470346184606B010BD10B584B0B7
:108220000390029101920093039B002B01D10E2336
:108230002CE0039B1B68002B01D1082326E0019B47
:10824000002B01D1092321E00299039800F08DF859
:108250000346002B01D1102318E0039B5B681B68C9
:10826000019A02FB03F31A460299039800F056F8AC
:108270000346002B01D1102308E0039B1B681C69F7
:10828000009B019A02990398A0470346184604B040
:1082900010BD000000B585B00190019B002B03D0FC
:1082A000019B1B68002B28D10023039319E0039A3C
:1082B00013469B0013449B001A46154B134401932D
:1082C000019B1B68002B09D0019B1B68DB6901988F
:1082D00098470346002B01D0012314E0039B013390
:1082E00003930C4A0A4BD31A0B4AA2FB03231B0924
:1082F000039A9A42DBD3002305E0019B1B68DB69EC
:10830000019898470346184605B05DF804FB00BF86
:108310000000012028000120CDCCCCCC84B00390FB
:1083200002910192039BDB68029A9A4209D3029A56
:10833000019B13445A1E039B1B699A4201D80123D7
:1083400000E0002303F00103DBB2184604B07047DD
:1083500082B00190019B03F00303002B0CBF0123AB
:108360000023DBB2184602B0704782B00190009142
:10837000019B5B681B685A1E009B1340002B0CBFBF
:1083800001230023DBB2184602B0704782B00346D7
:108390008DF807309DF90730002B0DDB9DF8073075
:1083A00003F01F0206499DF907305B09012000FA1E
:1083B00002F2603341F8232000BF02B0704700BFD3
:1083C00000E100E000B583B00190019B002B03D1D8
:1083D000064972204CF004F9019B00221A60BFF399
:1083E0005F8F00BF00BF03B05DF804FBBC9C0700BB
:1083F00041DF704700BF184600B585B000238DF8F7
:1084000007300DF107031846FFF738F9F1EE103A7F
:108410000393039B23F09F030293029BE1EE103A28
:1084200000BFBFF35F8F00BF2620FFF7AFFF9DF8AF
:1084300007301846FFF738F9039B03F00703002BBA
:1084400003D004497D204CF0CBF800BF05B05DF8A7
:1084500004FB00BFF49C070008B5064B00221A700D
:108460000548FFF7AFFF0549054800F041FA002332
:10847000184608BD5C09012058090120509D0700DD
:108480006009012000B583B0FFF7B6FF49F05CF842
:108490000346002B0ED0FFF7ABFF0190019B002B92
:1084A0000BD0019B022B08D006494FF4B0704CF062
:1084B00097F802E020BF40BF20BF00BF03B05DF8C7
:1084C00004FB00BFF49C070082B00190019B9B68F5
:1084D000024A12781344184602B07047B29D070052
:1084E00000B583B001900091019B002B03D1084996
:1084F00083204CF075F8019B9B68009A9A4202D247
:10850000009B013300E00023184603B05DF804FB34
:108510005C9D070000B585B00190019B1B681B683E
:108520000393019B1B685B680293029A039B9A4228
:1085300003D3029A039BD31A07E00198FFF7C4FF05
:108540000246039BD21A029B1344184605B05DF8FD
:1085500004FB000000B585B00190019B002B03D106
:108560000D4998204CF03CF8019B1B681B68039355
:10857000019B1B685B68029302990198FFF7B0FFAB
:108580000246039B93420CBF01230023DBB2184633
:1085900005B05DF804FB00BF5C9D070010B588B016
:1085A0000190009100230793019B002B03D15649B2
:1085B000A3204CF015F8009B002B03D15249A420B6
:1085C0004CF00EF800238DF80F300DF10F03184614
:1085D000FFF754F80198FFF7BDFF03468DF81B30F5
:1085E0009DF81B3083F00103DBB2002B03D1019B0C
:1085F0001B7C002B7BD1019B1B685B680593019B57
:108600001B685A68019B1C6811460198FFF768FFB8
:10861000034663609DF81B30002B0AD0019B1B684A
:108620001A68019B1C6811460198FFF759FF034621
:108630002360019BDB68013B072B38D801A252F86D
:1086400023F000BF6586020075860200AF86020037
:1086500087860200AF860200AF860200AF86020066
:1086600099860200019B5A68059B1344009A127870
:108670001A702DE0019B5A68059B5B001344009A19
:1086800012881A8024E0019B5A68059B9B001344C2
:10869000009A12681A601BE0019B5A68059BDB0078
:1086A000D118009BD3E90023C1E9002310E0019B0E
:1086B0005B681946019BDB68059A02FB03F30B44D8
:1086C0001846019BDB681A4600994FF0FFFD00BF7A
:1086D0000198FFF71FFF0490019B1B689B68049A99
:1086E0009A4207D9019B1B68049A9A6002E004230E
:1086F000079300E000BF9DF80F301846FEF7D4FF47
:10870000079B184608B010BD5C9D070000B585B0FA
:1087100001900B468DF80330019B1B681B68039387
:10872000019B1B685B6802939DF80330002B0ED001
:10873000029A039B9A4206D30198FFF7C5FE0246B0
:10874000029BD31A11E0039A029BD31A0DE0029AFE
:10875000039B9A4203D3029A039BD31A05E0019824
:10876000FFF7B2FE0246039BD31A184605B05DF828
:1087700004FB00B58BB0039002910192039B1B6830
:108780001B68099300210398FFF7C0FF0890039B23
:108790005B681946039BDB68099A02FB03F30B44F1
:1087A0000793019A089B9A4219D8039BDB68019AA8
:1087B00002FB03F31A46079902984FF087FD099AC6
:1087C000019B1A44039B9B689A4203D8099A019B18
:1087D000134400E00023039A1268136020E0039B17
:1087E000DA68089B02FB03F30693069A079902983E
:1087F0004FF06CFD019A089BD31A0593029A069BD1
:1088000013441846039B5968039BDB68059A02FBD7
:1088100003F31A464FF05AFD039B1B68059A1A6032
:1088200000BF0BB05DF804FB00B587B00390029168
:10883000019200230593039B002B04D119494FF4A7
:10884000EC704BF0CDFE029B002B04D1154940F299
:10885000D9104BF0C5FE019B002B01D100231CE079
:1088600000238DF813300DF113031846FEF706FFB1
:108870000398FFF74FFE0246019B934205D8019AE9
:1088800002990398FFF775FF01E0052305939DF812
:1088900013301846FEF708FF059B184607B05DF831
:1088A00004FB00BF5C9D070000B585B00190019BF3
:1088B000002B04D10D4940F21E204BF091FE002305
:1088C0008DF80B300DF10B031846FEF7D7FE01981B
:1088D000FFF720FE03909DF80B301846FEF7E4FEEC
:1088E000039B184605B05DF804FB00BF5C9D0700C4
:1088F00000B583B001900091019B002B03D110497A
:1089000050204BF06DFE009B002B03D10C495120F1
:108910004BF066FE019B009A1A60019B1B681A6867
:10892000019B5A60019B5A68019B1B685B689A42D5
:1089300002D1019B00225A6000BF03B05DF804FB26
:10894000B49D070000B583B00190019B002B03D1BB
:10895000144963204BF044FE019B1B68002B03D19C
:10896000104964204BF03CFE019B5B68002B14D047
:10897000019B5B681A46019B1B689B6813441A465F
:10898000019B5A60019B5A68019B1B685B689A4275
:1089900004D1019B00225A6000E000BF03B05DF8E3
:1089A00004FB00BFB49D070000B583B00190019B9C
:1089B0001B781A460C4B9B5C002B05D0019B0433A3
:1089C00018460DF085FC0BE0019B1B781A46064B00
:1089D0009B5C002B04D1019B0C3318460CF0AEFCC1
:1089E00000BF03B05DF804FBE40E012000B587B0C2
:1089F0000390029113468DF8073000230593039BE3
:108A00001B781A46114B9B5C002B09D0039B043347
:108A10009DF80720029918460DF0BCFC05900FE068
:108A2000039B1B781A46094B9B5C002B08D1039BC8
:108A30000C339DF80720029918460CF0F7FC0590BE
:108A4000059B184607B05DF804FB00BFE40E01204B
:108A500000B585B0019000238DF80F30019B1B7885
:108A60001A46114B9B5C002B08D0019B043318461F
:108A70000DF058FD03468DF80F300EE0019B1B787A
:108A80001A46094B9B5C002B07D1019B0C331846FF
:108A90000CF054FD03468DF80F309DF80F3018464A
:108AA00005B05DF804FB00BFE40E012000B587B0FF
:108AB0000390029113468DF8073000230593039B22
:108AC0001B781A46114B9B5C002B09D0039B043387
:108AD0009DF80720029918460DF03CFD05900FE027
:108AE000039B1B781A46094B9B5C002B08D1039B08
:108AF0000C339DF80720029918460CF077FD05907D
:108B0000059B184607B05DF804FB00BFE40E01208A
:108B100084B00190019B9B680393019BDA68039BDF
:108B2000D31A184604B0704700B587B00190009181
:108B3000009B0593019B1B78022B50D0022B7EDCFF
:108B4000002B5FD0012B7AD1019B1B7A002B07D120
:108B50000598059B1D3301221946FFF7A7FF6FE01B
:108B6000059B03F12002019B5B681B7819461046A8
:108B7000FEF7BBFC0490049B002B0AD001238DF868
:108B80000830049B0393059B9B6902AA10469847F3
:108B90000FE0059B20331846FFF7BAFF0346002B72
:108BA00007D000238DF80830059B9B6902AA104668
:108BB0009847059B20331846FFF7AAFF0246059BFE
:108BC0009B8C9A4207D80598059B1D3301221946B4
:108BD000FFF76CFF34E0059B01225A7530E0022359
:108BE0008DF80830019BDB6803930598059B1D33C6
:108BF00001221946FFF75AFF059B9B6902AA1046FE
:108C000098471DE0059B03F13002059B1C33194674
:108C10001046FEF785FC0346002B07D10598059BFF
:108C20001C3301221946FFF7E1FE09E003238DF80A
:108C30000830059B9B6902AA1046984700E000BFD8
:108C400000BF07B05DF804FB30B591B0039002910E
:108C500013468DF80730029B002B01D107237DE0DE
:108C6000039B03F12000029B1968029B5B689BB287
:108C70001A46FEF70EFC0F900F9B0E930E9B002BD7
:108C800001D00E9B6AE0039B03F13000029B9968C0
:108C9000029BDB689BB21A46FEF7FBFB0F900F9B13
:108CA0000D930D9B002B01D00D9B57E02D4B04AC79
:108CB0001D460FCD0FC495E80F0084E80F00039BFD
:108CC0001B6C5B690A93039B1B6C1B7C002B14BF02
:108CD00001230023DBB28DF824309DF807308DF896
:108CE0002C30039B1B6C5B7C002B01D00E2300E01F
:108CF00000238DF82530039B1B6CDB680693039BD8
:108D00001B6C9B680793039B1B6C1B680593039B61
:108D10001B6C5B680493039B0893039B04A9124A92
:108D2000184608F09BFD0F900F9B0C930C9B002B9B
:108D300001D00C9B12E0039B00225A75039B1B6C15
:108D40001B68B3F1FF3F08D00398039B1D3301223A
:108D50001946FFF7ABFE034600E00023184611B0AA
:108D600030BD00BF289E0700298B020000B587B0E8
:108D700001900091009B002B03D11649CC204BF0B1
:108D80002FFC019B5B7D8DF81730019B20330099F0
:108D90001846FEF7C5FB04909DF81730002B14D041
:108DA000019B00225A750198019B1D33012219462F
:108DB000FFF77CFE0390039B0293029B002B04D0E1
:108DC000044AD8210298FEF709FB049B184607B015
:108DD0005DF804FB489E070000B585B001900B4686
:108DE0008DF80330019B30339DF80320114618465F
:108DF000FEF77BFB0390039B002B1DD1019B1846C4
:108E0000FFF726FE034683F00103DBB2002B13D0ED
:108E1000019B03F13002019B1C3319461046FEF7FB
:108E20007FFB0346002B07D10198019B1C330122D5
:108E30001946FFF7DBFD0390039B184605B05DF86C
:108E400004FB00B583B00190019B1846FFF7ACFD11
:108E50000023184603B05DF804FB82B001900B4676
:108E6000ADF80230BDF80230019A1344184602B042
:108E7000704782B00190019BD3F81035DBB21846E1
:108E800002B0704782B001900B468DF803309DF818
:108E90000320019B02F5A87253F82230184602B055
:108EA000704782B00190019B9B0003F5A0739BB2B9
:108EB000184602B070470000F0B587B001900B462D
:108EC0008DF803309DF803300593019B00221E4668
:108ED00017464FF000024FF000033B0143EA1673C0
:108EE00032010599C1F12006A1F1200022FA01F416
:108EF00003FA06F6344323FA00F0044323FA01F59B
:108F0000CDE90245DDE90223012B04D3044940F2F7
:108F1000B9204BF065FB029B184607B0F0BD00BFBF
:108F2000E49E070010B582B001900091019B5B792F
:108F30001A46009B934204D3094940F271104BF04A
:108F40004FFB019B1C680098FFF7ABFF03461946D7
:108F50002046FFF782FF0346184602B010BD00BF4F
:108F6000149F070000B583B001900B468DF80330C5
:108F7000019B1B689DF8032011461846FFF782FFEE
:108F80000346184603B05DF804FB00B583B00190BA
:108F90000091019B1B681846FFF76BFF03461946BB
:108FA0000098FFF789FF0346184603B05DF804FBFD
:108FB00000B583B00190019B1B68184600F05AF879
:108FC0000346002B04D10B494FF4F6704BF008FB1D
:108FD000019B1B681F2B02D84FF0A04306E0019BAA
:108FE0001B6803F01F02019B1A60034B184603B075
:108FF0005DF804FB509F07000003005000B585B0EA
:10900000019001AB1846FFF7D3FF0390019B0122AB
:1090100002FA03F31946039800F018F800BF05B0F0
:109020005DF804FB00B585B0019001AB1846FFF771
:10903000BFFF0390019B012202FA03F31946039834
:1090400000F00EF800BF05B05DF804FB82B001909F
:109050000091019B009AC3F8082500BF02B0704739
:1090600082B001900091019B009AC3F80C2500BFCB
:1090700002B0704784B00190019B5B09029300230A
:109080000393029B002B03D0029B012B04D007E02B
:109090004FF0FF33039303E04FF6FF73039300BFDA
:1090A000019B03F01F030193039A019B22FA03F330
:1090B00003F00103002B14BF01230023DBB2184689
:1090C00004B0704782B001900B468DF8033000BFAA
:1090D00002B0704700B585B00190019B5B681B79B9
:1090E0001A461A4B9B5C8DF80E3001238DF80F3019
:1090F0009DF80E30FF2B20D09DF80E30FE2B1FD098
:10910000019B5B689DF80E2011461846FFF72AFF69
:109110000246019B5B681B7919460D4B53F82130C1
:109120009A420DD1019B5B681B791A46074BFF21C0
:10913000995400238DF80F3002E000238DF80F3092
:109140009DF80F30184605B05DF804FB6C0901204E
:109150007409012000B583B00190019B5B68022176
:1091600018460BF009FC00BF03B05DF804FB00B526
:1091700083B00190019B5B68022118460BF036FC1E
:1091800000BF03B05DF804FB00B587B00346009153
:10919000ADF80630009B049301238DF817300023AF
:1091A0008DF816303AE09DF816302649049A5200A0
:1091B0000A4413441B78DBB2002B2AD09DF81630EA
:1091C0002049049A52000A441A441278D2B2013A51
:1091D000D0B21C49049A52000A44134402461A7041
:1091E0009DF816301749049A52000A4413441B781C
:1091F000DBB2002B0AD1144A049B52F823301B68BF
:109200000393039BDB690498984702E000238DF8E1
:1092100017309DF8163001338DF816309DF8163052
:10922000012BC0D99DF81730002B06D0064A049BAD
:1092300052F823301846FFF79AFF00BF07B05DF8D9
:1092400004FB00BF880901209409012000B585B006
:109250000190019B1B680293029B93F820301846F3
:109260000FF0E2FE00238DF80F306CE000238DF844
:109270000E3031E09DF80F209DF80E100298134635
:109280005B0013449B0003440B4408331B78FF2B03
:109290001DD09DF80F209DF80E10029813465B001C
:1092A00013449B0003440B4408331B7818460FF00B
:1092B000BBFE9DF80F209DF80E10029813465B0030
:1092C00013449B0003440B440833FF221A709DF89B
:1092D0000E3001338DF80E309DF80E30012BC9D9B8
:1092E0009DF80F20029913465B0013449B000B442A
:1092F0001B68B3F1FF3F16D09DF80F20029913466B
:109300005B0013449B000B441B68184609F09CFB50
:109310009DF80F20029913465B0013449B000B44F9
:109320004FF0FF321A609DF80F20029913465B0040
:1093300013449B000B440B3300221A709DF80F302E
:1093400001338DF80F309DF80F30012B8ED9019B22
:109350005B6818460BF0FAF900BF05B05DF804FB36
:1093600030B587B001900B468DF803301346ADF849
:109370000030019B1B6805939DF8032013465B009A
:1093800013449B00059A134404939DF803308DF811
:109390000F30059B93F8203018460FF0E4FEBDF81F
:1093A0000030002B11D1049B5B7A18460FF0DBFED6
:1093B000049B1B7A18460FF0A1FE019B5B681B798A
:1093C0001A46484BFF21995485E0BDF80020059BC3
:1093D0009B699A4215D3059B9B69ADF80030049BAD
:1093E0001B7A18460FF0BFFE049B5B7A18460FF0FD
:1093F00085FE019B5B681B791A463A4BFF21995405
:1094000069E0049B5A68059B9B699A4249D0049B7A
:109410005B68002B45D0BDF80020049B5B689A4236
:109420003FD2019B5868049B5A68002303210BF02C
:109430003BFA059B93F82040019B5B68032118468B
:10944000FFF770FD0546049B9B7A002B06D0049B1A
:109450001B68184609F00CFC034605E0049B1B68DA
:10946000184609F0C9FB03461A46294620460FF064
:109470000CFE059B93F8203018460FF03FFE019B31
:109480005B681B791946174A9DF803305354019BBA
:109490005B681B791946BDF80030134A42F8213049
:1094A00006E0019B5B681B791A460E4BFF2199541D
:1094B000019B5868BDF800209DF80F1000230BF0A9
:1094C000F3F9049B1B7A18460FF018FE049B5B7A95
:1094D00018460FF013FEBDF80020049B5A6000BF31
:1094E00007B030BD6C0901207409012000B585B0BA
:1094F00001900B468DF803301346ADF80030019B08
:109500001B6803939DF8032013465B0013449B00E4
:10951000039A134402939DF80330012B04D92C497C
:1095200040F25B204BF05CF8029BDB7A012B04D00D
:1095300027494FF417704BF053F8039B93F82130F1
:10954000022B01D008233EE0BDF80020029B5B689F
:109550009A420CD1039BDB69002B06D0039BDB698D
:10956000019A526812791046984700232BE001981F
:10957000FFF7B0FD0346002B01D0112323E0019B30
:109580005B681B791A46134BFE219954BDF80020E5
:109590009DF8033019460198FFF7E2FE019B1B6816
:1095A000DB69002B0ED0019B5B681B791A469DF886
:1095B0000330094952000A44134402221A700198E8
:1095C000FFF7C8FD0023184605B05DF804FB00BF97
:1095D000809F07006C0901208809012084B0019058
:1095E000019B1B680393039B9B699BB2184604B0C5
:1095F0007047000000B585B001900B468DF8033030
:109600001346ADF800300198FFF7E8FF03461A460D
:10961000BDF8003002FB03F3084AA2FB03235B09F9
:109620000393039B9AB29DF8033019460198FFF704
:109630005DFF0346184605B05DF804FB1F85EB513E
:1096400010B58CB0039001921A460B468DF80B3082
:1096500013468DF80A309DF80B30012B04D9684968
:109660004FF42B704AF0BCFF039B1B680A939DF8D4
:109670000B2013465B0013449B000A9A1344099382
:109680000A9B93F82130002B01D00823B4E0099BFA
:1096900000225A60099B9DF80A209A7203238DF8D4
:1096A0001430039B19689DF80B2013465B0013448C
:1096B0009B000B440A331B78002B0CBF01230023B3
:1096C000DBB28DF8153001238DF8163005AB194645
:1096D000019809F04FF90890089B002B01D0042352
:1096E0008AE09DF80B200A9913465B0013449B0007
:1096F0000B44019A1A609DF80A30002B03D00198A0
:10970000FFF790FC02E00198FFF778FC00238DF84A
:109710002F3011E09DF82F300833099A1344184672
:109720000FF028FC0346002B01D0042364E09DF8D1
:109730002F3001338DF82F309DF82F30012BE9D9D0
:10974000099B1B7A18460FF00EFD099B5B7A1846A1
:109750000FF009FD9DF80A30002B06D0099B1B680D
:10976000184609F085FA034605E0099B1B68184670
:1097700009F042FA034607939DF80A30002B06D001
:10978000099B1B68184609F037FA034605E0099B58
:109790001B68184609F06CFA03460693099B1C7A6D
:1097A000039B5B689DF80B2011461846FFF7BAFB38
:1097B0000346079A194620460FF067FC099B5C7A1E
:1097C000039B5B6802211846FFF7ACFB0346069A31
:1097D000194620460FF059FC099B0122DA72039BBF
:1097E0005B681B791A469DF80B30064952000A4403
:1097F000134400221A70002318460CB010BD00BF9D
:10980000809F07008809012084B001900023039302
:109810000923029305E0019B5B080193039B01333D
:109820000393019BB3F5805F03D3039A029B9A4293
:10983000F1D3074B1B78002B04D0039B002B01D1E5
:1098400001230393039BDBB2184604B0704700BFAB
:109850006809012000B58FB0059004910392059B23
:10986000002B04D18F4940F211304AF0B9FE049B1D
:10987000002B01D10B2310E1059B1B680C930C9B63
:1098800093F82130002B01D0082306E10FF0A2FC51
:109890000B900B9B002B04D00B9B852B01D004233A
:1098A000FBE009F05BF8034683F00103DBB2002B19
:1098B00007D008F0EFFF0B900B9B002B01D0032388
:1098C000EBE0794B1B6803F0F003302B03D1774BAF
:1098D00000221A7002E0754B01221A700C9BFF22C5
:1098E00083F8202000238DF8373030E09DF83720B2
:1098F0000C9913465B0013449B000B440B3300226E
:109900001A709DF837200C9913465B0013449B0096
:109910000B440833FF221A709DF837200C99134628
:109920005B0013449B000B440933FF221A709DF81F
:1099300037200C9913465B0013449B000B444FF0F7
:10994000FF321A609DF8373001338DF837309DF8BB
:109950003730012BCAD90C9B203318460FF00AFB75
:109960000346002B04D00598FFF770FC042394E015
:1099700000238DF836302CE09DF83620049B53F8F8
:109980002230B3F1FF3F1FD09DF83620049B53F8DF
:1099900022009DF83630049A13441B7A9DF8361045
:1099A00002460598FFF74CFE0B900B9B002B04D052
:1099B0000598FFF74BFC0B9B6FE09DF836300022BB
:1099C00019460598FFF792FD9DF8363001338DF862
:1099D00036309DF83630012BCED9049B1B691846D2
:1099E000FFF712FF03468DF82B309DF82B308DF8D2
:1099F0001C3000238DF81D3000238DF81E30072306
:109A00008DF81F30059B5B681B790893059B5B688D
:109A100007A9274A18460AF095FD0B900B9B002BCF
:109A200004D00598FFF712FC0B9B36E0059B5A68A3
:109A3000049B1B6919461046FFF7A7FA09900C9B77
:109A4000099A9A61059B5B6818460AF00BFF059B13
:109A50005868012300930423099A02210AF05DFF4C
:109A6000059B5B68022118460AF0C0FF0C9B039A15
:109A7000DA61059B5B681B7919460E4A059B42F823
:109A80002130059B5B681B791A460B4BFF219954CB
:109A90000C9B012283F82120002318460FB05DF8AB
:109AA00004FB00BF809F0700E80F00F06809012059
:109AB00089910200940901206C09012000B587B04A
:109AC0000190019B1B680493049B93F82130002BA9
:109AD00004D1304940F297304AF082FD00230593CB
:109AE00034E0059A13465B0013449B00049A134428
:109AF0000393019B5B681B79274A5B001A44059B13
:109B0000134400221A70039BDB7A002B1BD0039BAB
:109B10001868019B1968059A13465B0013449B0063
:109B20000B440A331B78002B0CBF01230023DBB24C
:109B3000194609F0B1F8039B1B68184608F0C8FFE6
:109B4000039B00225A60059B01330593059B012B63
:109B5000C7D9019B5B681B791A46104BFF219954AA
:109B6000019B5B681B6801211846FFF7ABFA019B5C
:109B70005B6818460AF076FE019B5B6818460AF09F
:109B800015FE049B022283F8212000BF07B05DF878
:109B900004FB00BF809F0700880901206C09012099
:109BA00000B587B00190019B1B680493049B93F858
:109BB0002130002B04D136494FF46D704AF010FD6E
:109BC000019B5B6818460AF01FFE0198FFF7CFFA69
:109BD000049B93F8203018460FF0C5FA00238DF847
:109BE000173041E09DF8172013465B0013449B009B
:109BF000049A13440393039BDB7A002B2FD0019B21
:109C000019689DF8172013465B0013449B000B4412
:109C10000A331B78002B0CBF01230023DBB28DF825
:109C20000B309DF80B30002B05D0039B1B681846AA
:109C3000FFF7E4F904E0039B1B681846FFF7F2F90D
:109C4000039B1B68184608F079FF039B1B7A184694
:109C50000FF089FA039B5B7A18460FF084FA9DF89F
:109C6000173001338DF817309DF81730012BB9D913
:109C7000019B5B681B6800211846FFF723FA049BD1
:109C8000012283F8212000BF07B05DF804FB00BF6C
:109C9000809F070000B585B00190019B1B6803936E
:109CA000039B93F82130022B03D10198FFF778FF33
:109CB00006E0039B93F82130002B01D1082307E035
:109CC0000198FFF7C3FA039B002283F821200023A9
:109CD000184605B05DF804FB29DF704700BF184641
:109CE00028DF704700BF184600B589B00190009189
:109CF000019B1B689B68002B35D002AB00221A60C9
:109D00005A609A60DA601A615A61009B0393019B62
:109D10009B680793019B1B79002B02D0012B0DD070
:109D20001AE001238DF80830019B1B690493019B05
:109D3000DB680593019B5B6906930DE002238DF8B8
:109D40000830019BDB684FF4805202FB03F304935D
:109D5000019B5B69069300BF019B1B689B6802AA7D
:109D60001046984700E000BF09B05DF804FB00B55D
:109D700087B00190019B5A69019B9B69D31AB3F587
:109D8000805F28BF4FF4805305930422059BB3FBEB
:109D9000F2F3012B38BF01230593019B1A69019B44
:109DA0009B6913440493019BDB681A46019B9B69E2
:109DB00013440393059A03990498FFF78DFF034614
:109DC000184607B05DF804FB00B583B00190019B15
:109DD000DA68019B1B6913441846FFF781FF0346AD
:109DE000184603B05DF804FB08B5034B0349184659
:109DF00000F078FB00BF08BD340A01205C0A012096
:109E000008B5084B0849184600F053FB0346074ABB
:109E10001360064B1B68002B14BF01230023DBB229
:109E2000184608BD340A01205C0A0120580A0120A6
:109E300000B583B02A4B1B7A002B0BD1FFF7E0FF54
:109E4000034683F00103DBB2002B03D0244B002236
:109E50005A6042E0224B02221A72224B1B681B7985
:109E6000002B02D0012B07D00DE01E4B1B681846BB
:109E7000FFF77DFF019009E01A4B1B681846FFF7BA
:109E8000A3FF019002E00323019300BF019B002B7D
:109E900003D0019B112B0CD00FE0114B1B7C83F0E6
:109EA0000103DBB2002B17D00021022000F060F983
:109EB00012E00B4B01221A720FE00A4B1B680321C0
:109EC0001846FFF711FF064B00221A72044B0022BE
:109ED0005A60FFF789FF00E000BF03B05DF804FBA4
:109EE000440A0120580A012008B50848FEF7D7F8AF
:109EF0000346002B08D1064B5B7C83F00103DBB2E9
:109F0000002B01D0FFF794FF00BF08BD480A0120D5
:109F1000440A012084B001901B4B0022DA60019BAF
:109F20001B79002B02D0012B19D028E0019B5A6924
:109F3000019B9B69D31AB3F5805F28BF4FF4805310
:109F40000393019B9A69039B1A44019B9A61019BAD
:109F50009A69019B5B699A420ED1012310E0019B33
:109F60001B695A1C019B1A61019B1A69019B5B6961
:109F70009A4203D1012303E000BF00E000BF0023A9
:109F8000184604B0704700BF440A012082B0019017
:109F9000084BDB680133074AD360064BDB68082BAC
:109FA00004D9044B0022DA60012300E000231846A4
:109FB00002B07047440A012000B583B001900091BF
:109FC000019B0C4A5A600C48FEF769F80346002BC7
:109FD0000BD147F0B9FA03461A46074B1A740748E3
:109FE0001C238C22064900F0F0F90023184603B028
:109FF0005DF804FBD49F0700440A0120340A0120C5
:10A00000A809012000B583B001900091142200211D
:10A0100005484EF084F9054B184600F009FA002374
:10A02000184603B05DF804FB440A0120340A0120FD
:10A0300000B587B00390029101920093174A04ABD8
:10A040001946104600F008FA0590059B002B01D137
:10A0500004231FE01C22002105984EF060F9059BA7
:10A0600000221A71059B039A1A60059B089A9A6050
:10A07000059B029A1A61059B019ADA60059B009A7A
:10A080005A61064A04AB1946104600F0FEF9FFF784
:10A090002BFF0023184607B05DF804FB340A0120AB
:10A0A00000B585B00390029101920093029B009A43
:10A0B000194601984EF00AF90023184605B05DF8DC
:10A0C00004FB000000B587B0039002910192009359
:10A0D000184A04AB1946104600F0BEF90590059BDE
:10A0E000002B01D1042320E01C22002105984EF012
:10A0F00016F9059B01221A71059B039A1A60059BAC
:10A10000009A9A604FF48052029BB3FBF2F2059BD7
:10A11000DA60059B019A5A61064A04AB194610465B
:10A1200000F0B3F9FFF7E0FE0023184607B05DF832
:10A1300004FB00BF340A012082B001900091009B13
:10A14000184602B0704782B0019000910023184673
:10A1500002B0704782B00190044B1B7A002B14BFF1
:10A1600001230023DBB2184602B07047440A0120E5
:10A1700000B585B001900091019B022B02D0019B9C
:10A18000032B48D1274B1B7A022B05D0022B35DC41
:10A19000002B42D0012B31E000238DF80F30019BC2
:10A1A000022B03D0019B032B09D011E01E4B1B682F
:10A1B0001846FFF7AFFE03468DF80F3008E01A4B44
:10A1C0001B681846FFF7E2FE03468DF80F3000BF0C
:10A1D0009DF80F30002B10D0124B00221A72124B38
:10A1E0001A68019B022B01D1002300E00D231946C0
:10A1F0001046FFF779FDFFF7F7FD00BF094B5B7CC9
:10A2000083F00103DBB2002B02D0FFF711FE05E063
:10A2100047F07EF902E000BF00E000BF05B05DF846
:10A2200004FB00BF440A0120580A012082B0034603
:10A2300000918DF80730064B01225A74044B1B7AAB
:10A24000002B0CBF01230023DBB2184602B070477D
:10A25000440A012000B583B0034600918DF8073011
:10A260009DF80730012B03D09DF80730032B0DD14B
:10A27000084B00225A749DF80730012B0CBF0123B4
:10A280000023DAB2034B1A74FFF7D2FD00BF03B00C
:10A290005DF804FB440A012086B001900091019B07
:10A2A00053E8011F8AB2D88902449889824228BFA4
:10A2B000121A1889824202BFBFF32F8F002307E0D2
:10A2C000C2EA010243E801200028E9D14FF001036E
:10A2D0008DF80F30059002910492029A009B1A604B
:10A2E0009DF80F30DBB2184606B0704784B001907D
:10A2F000019951E8013FC3EA034341E80132002AD2
:10A30000F7D10392029300BF04B0704786B001906A
:10A310000091019B53E8021F1FFAA1F2D8888242E4
:10A3200002BFBFF32F8F00230DE0D8890244988924
:10A33000824228BF121AC1EA024243E802200028E2
:10A34000E8D14FF001038DF80F300590029104928F
:10A35000029A009B1A609DF80F30DBB2184606B0D7
:10A36000704784B00190019951E8023FC3EA23434A
:10A3700041E80232002AF7D10392029300BF04B0F1
:10A38000704786B00190019B53E8021FDA88B1EB59
:10A39000314F4FF0000017BF89B242EA024241EA52
:10A3A000024204E05968B1EB314F08BF012043E895
:10A3B00002210029E8D18DF80F00059104929DF843
:10A3C0000F30DBB2184606B0704784B0039002919C
:10A3D00011461A460B46ADF806301346ADF8043068
:10A3E000029B002B01D10E231FE0BDF80630BDF803
:10A3F0000420B3FBF2F101FB02F29B1A9BB2002B8B
:10A4000001D0092311E0039B029A1A60039B0022EA
:10A410005A60039B00229A60039BBDF806209A8134
:10A42000039BBDF80420DA810023184604B070476E
:10A4300000B585B001900198FFF7A3FF03468DF8A2
:10A440000F309DF80F30002B01D0002300E01123C6
:10A45000184605B05DF804FB00B585B00190009189
:10A46000009B19460198FFF717FF0346002B07D002
:10A47000019B1B68009A128813440393039B00E01E
:10A480000023184605B05DF804FB00B583B00190C9
:10A490000091009B1A88009B5B889A4204D1019826
:10A4A000FFF724FF012300E00023184603B05DF806
:10A4B00004FB00B585B001900091009B19460198FE
:10A4C000FFF724FF0346002B07D0019B1B68009A6F
:10A4D000528813440393039B00E00023184605B001
:10A4E0005DF804FB00B583B001900091009B1A88D1
:10A4F000009B5B889A4204D10198FFF732FF012349
:10A5000000E00023184603B05DF804FB00B585B0F9
:10A5100001900091009B5B099B00019A1A44009BEB
:10A5200003F01F03012101FA03F319461046FDF75A
:10A530000CFD039000BF05B05DF804FB00B585B0CD
:10A5400001900091009B5B099B00019A1A44009BBB
:10A5500003F01F03012101FA03F3DB431946104600
:10A56000FDF723FD039000BF05B05DF804FB82B04A
:10A5700001900091009B5B099B00019A13441A68AB
:10A58000009B03F01F0322FA03F303F00103002BE7
:10A5900014BF01230023DBB2184602B0704700004D
:10A5A000024BD3F88034DBB218467047007002408B
:10A5B000024BD3F88434DBB2184670470070024077
:10A5C00008B512F04DFC0023184608BD00B585B053
:10A5D00003468DF807300B468DF8063013468DF88C
:10A5E00005309DF8073003F01F029DF806305B012F
:10A5F00003F060031A439DF80530DB01DBB213431F
:10A600000393039BFF2B04D905494FF4AC7049F029
:10A61000E7FF039BDBB2184605B05DF804FB00BF03
:10A6200000A0070082B00190019B1B7A184602B07F
:10A630007047000000B585B001900B468DF80330DF
:10A64000019B002B04D10F494FF4887049F0C8FFDB
:10A650000198FFF7E7FF03461A469DF8033093423F
:10A6600001D3002309E0019B093303939DF80320E4
:10A6700013465B001344039A1344184605B05DF873
:10A6800004FB00BF5CA0070082B00190019B1B7817
:10A69000184602B0704782B00190019B5B78184663
:10A6A00002B0704700B585B001900B468DF80330BD
:10A6B000019B002B04D10D4940F2431049F090FF5B
:10A6C000019B5B789DF803209A4201D3002309E0A7
:10A6D000019B9B781A46019B134403939DF803301A
:10A6E000039A1344184605B05DF804FB5CA007000C
:10A6F00082B00190019B1B78184602B0704782B06F
:10A700000190019B1B68184602B0704700B583B0EA
:10A710000190019B002B04D1064940F2432049F0EF
:10A720005FFF0198FFF7EBFF03461B68184603B075
:10A730005DF804FBBCA0070000B583B00190019B4D
:10A74000002B04D1064940F25F2049F049FF0198EF
:10A75000FFF7D5FF03465B68184603B05DF804FBBE
:10A76000BCA0070000B583B00190019B002B04D171
:10A77000064940F27B2049F033FF0198FFF7BFFF05
:10A7800003465B68184603B05DF804FBBCA00700F5
:10A79000014B1846704700BF78A307004FF0804375
:10A7A000D3F838341846704708B5FFF7F7FF03466B
:10A7B00003F00103002B14BF01230023DBB2184672
:10A7C00008BD08B5FFF7EAFF034603F00203002BBC
:10A7D00014BF01230023DBB2184608BD00B583B0C7
:10A7E00001900091019B002B04D1114940F20F1000
:10A7F00049F0F6FE019B5B68002B04D10C494FF435
:10A80000887049F0EDFE019B5B681B68002B04D14A
:10A81000074940F2111049F0E3FE019B5B681B6899
:10A820000099019898470346184603B05DF804FB69
:10A8300010A1070000B583B001900091019B002B8F
:10A8400004D1114940F2191049F0CAFE019B1B685E
:10A85000002B04D10C494FF48D7049F0C1FE019BCF
:10A860001B689B68002B04D1074940F21B1049F07C
:10A87000B7FE019B1B689B68009A52881046984758
:10A8800000BF03B05DF804FB10A1070000B583B062
:10A8900001900B468DF80330074B1B68002B06D048
:10A8A000054B1B689DF8032011460198984700BF8F
:10A8B00003B05DF804FB00BF200C012000B583B09D
:10A8C00003468DF80730074B5B68002B05D0054B1E
:10A8D0005B689DF807201046984700BF03B05DF8FD
:10A8E00004FB00BF200C012010B58EB00390019333
:10A8F0000B468DF80B3013468DF80A300023099370
:10A9000000230D9302E00D9B01330D93039B5B68C5
:10A910005C6809A8012300220399A0470346002B85
:10A92000F1D100238DF8233000230C9300238DF800
:10A930002F30002306934FE0039B5B685C680DF1AA
:10A94000230206A801230399A047039B5B685C6868
:10A950000DF1170206A801230399A0479DF81730AF
:10A960009DF80B209A4227D19DF82F209DF80A30A0
:10A970009A421CD19DF823301A46109B1A60019B05
:10A980005A1C01929DF823201A70019B5A1C0192B7
:10A990009DF80B201A70039B5B685C689DF8233060
:10A9A000023B06A8019A0399A047002319E09DF8ED
:10A9B0002F3001338DF82F30039B5B685C689DF866
:10A9C0002330023B06A800220399A0479DF82330BC
:10A9D0001A460C9B13440C930C9A0D9B9A42ABD3D2
:10A9E000052318460EB010BD00B585B003468DF89E
:10A9F00007309DF90730002B14DA9DF8073003F07B
:10AA00000F038DF80E309DF80E30082B04D9114934
:10AA10004FF4CC7049F0E4FD9DF80E30DB000E4A97
:10AA2000134413E09DF8073003F00F038DF80F3047
:10AA30009DF80F30082B04D906494FF4CF7049F028
:10AA4000CFFD9DF80F30DB00044A1344184605B0D3
:10AA50005DF804FB10A10700800B0120C80B01204A
:10AA600000B583B003468DF807309DF807301846CF
:10AA7000FFF7BAFF03461B68184603B05DF804FBF6
:10AA800000B585B0034600918DF807309DF807307A
:10AA90001846FFF7A9FF0390039B009A1A60009BDA
:10AAA000002B10D19DF80730002B03D09DF8073004
:10AAB000802B04D108494FF4E17049F091FD039BCC
:10AAC00000225A6004E0009B5B681A68039B5A608E
:10AAD00000BF05B05DF804FB10A1070000B583B00E
:10AAE0000190064B5B68054A126801991046984729
:10AAF0000346184603B05DF804FB00BFC80B0120F5
:10AB000000B58BB00190019B0993099B1B78052B25
:10AB10001AD1FFF74DFD03468DF81F30FFF740FDBA
:10AB200003468DF81E30002200210020FFF74EFD65
:10AB300003461A469DF81E30934205D19DF81F30FA
:10AB4000052B01D13A4B0993099B1B78002B2ED181
:10AB500000F056FF089007E009990898FFF76AFE91
:10AB60000898FFF7FFFD0890089B002BF4D1002305
:10AB70008DF80F300DF10F031846FCF77FFD2D4BBC
:10AB80001B68002B03D1099B5A882B4B1A8001218B
:10AB90002848FDF73AFA9DF80F301846FCF784FD77
:10ABA00001210998FFF772FE224B1B683CE0234A03
:10ABB00004AB19461046FFF74FFC0690069B002B8E
:10ABC00032D0069A099B1B68136000238DF80E3063
:10ABD0000DF10E031846FCF751FD174B1A88154B63
:10ABE0001B689BB2D31A9BB201339AB2069BDA80E0
:10ABF00000211048FDF77AF903469AB2069B9A8025
:10AC00009DF80E301846FCF74FFD0C4A04AB194670
:10AC10001046FFF73AFC03468DF817309DF81730C1
:10AC200019460998FFF732FE0BB05DF804FB00BF30
:10AC300070A10700780B01207C0B0120680B01201C
:10AC400000B583B003468DF807309DF80730022B1E
:10AC50000ED0022B10DC002B02D0012B04D00BE015
:10AC60000A48FFF74DFF0DE00948FFF749FF09E0EB
:10AC70000848FFF745FF05E0074940F2622049F028
:10AC8000AFFC00BF00BF03B05DF804FB64A1070088
:10AC900068A107006CA1070010A1070000B583B0F0
:10ACA00001900198FFF72CFF00BF03B05DF804FB93
:10ACB00000B583B003468DF807309DF80730002BB0
:10ACC00004D0064940F27B2049F08AFC0448FFF793
:10ACD00017FF00BF03B05DF804FB00BF10A1070021
:10ACE00074A1070082B003468DF807309DF8073045
:10ACF000082B27D801A252F823F000BF21AD020093
:10AD000025AD020029AD02002DAD020031AD0200DB
:10AD100035AD020039AD02003DAD020041AD02008B
:10AD2000002310E000230EE001230CE000230AE0E2
:10AD3000002308E0012306E0012304E0012302E0F0
:10AD4000012300E00023184602B0704782B003469A
:10AD50008DF807309DF80730082B27D801A252F84C
:10AD600023F000BF89AD02008DAD020091AD02005D
:10AD700095AD020099AD02009DAD0200A1AD0200AB
:10AD8000A5AD0200A9AD0200002310E000230EE0F3
:10AD900001230CE000230AE0002308E0002306E082
:10ADA000002304E0002302E0012300E00023184612
:10ADB00002B07047014B1B78184670471C0C0120ED
:10ADC00010B582B003468DF807309DF8073018465D
:10ADD000FFF788FF03461C461C4B1B781846FFF7FD
:10ADE00081FF03469C420DD09DF807301846FFF7BF
:10ADF00079FF0346002B03D0154806F061FA01E005
:10AE000006F0BCFA9DF807301846FFF79FFF03468F
:10AE10001C460E4B1B781846FFF798FF03469C42D2
:10AE20000CD09DF807301846FFF790FF0346002B23
:10AE300002D012F0C1F901E012F0B4F9034A9DF812
:10AE40000730137000BF02B010BD00BF1C0C012002
:10AE50002800012000B587B001900B468DF8033023
:10AE600013468DF802300198FFF7DCFB03461A46C3
:10AE70009DF80330934204D91B4940F2F92049F070
:10AE8000AFFB9DF80230002B01D0072328E09DF88E
:10AE9000033019460198FFF7CDFB04900498FFF7A3
:10AEA000FAFB03468DF80F3000238DF8173010E0C1
:10AEB0009DF8173019460498FFF7F4FB0290029BA7
:10AEC0001B78184600F064FD9DF8173001338DF8AB
:10AED00017309DF817209DF80F309A42E8D30023D1
:10AEE000184607B05DF804FB10A1070000B587B055
:10AEF00001900B468DF803300198FFF793FB034652
:10AF00001A469DF80330934204D919494FF446700C
:10AF100049F066FB9DF8033019460198FFF78AFB5C
:10AF200004900498FFF7B7FB03468DF80F30002319
:10AF30008DF8173010E09DF8173019460498FFF788
:10AF4000B1FB0290029B1B78184600F03FFD9DF874
:10AF5000173001338DF817309DF817209DF80F300A
:10AF60009A42E8D300BF00BF07B05DF804FB00BF02
:10AF700010A1070000B589B0019006F08BF80346D8
:10AF8000002B04D1484940F2313049F029FB4748B1
:10AF900008234FF484724649FFF717FA0690069B80
:10AFA000002B01D003237BE0424811F0D5FE069030
:10AFB000069B002B01D0069B72E03F4B00221A70CB
:10AFC0003E4B00221A603E4B00221A6048220021AC
:10AFD0003C484DF0A4F9482200213B484DF09FF930
:10AFE000019B002B09D1394B00221A60374B0022FC
:10AFF0005A60364B00221A7204E0344B019A07CA99
:10B0000083E8070000200FF079F80690069B002BDC
:10B0100008D0069B852B05D0234A40F25F31069865
:10B02000FCF7DCF9FFF7B4FB059000238DF81F3027
:10B0300018E000238DF81E3007E00398FFF758FB57
:10B04000034605991846FFF71BFD9DF81E305A1C54
:10B050008DF81E2019460498FFF724FB0390039BEC
:10B06000002BEAD19DF81F305A1C8DF81F2019467D
:10B070000598FFF7DFFA0490049B002BD9D10B232E
:10B080008DF8083002AB19460598FFF7A7FB06902C
:10B09000069B002B03D0FFF793FA069B00E00023EA
:10B0A000184609B05DF804FB10A10700680B0120E9
:10B0B000600A01209DAC02001C0C0120100C012034
:10B0C000140C0120800B0120C80B0120200C012052
:10B0D00000B583B011F0BCFF034683F00103DBB27F
:10B0E000002B04D111F0C0FF0346002B01D0082330
:10B0F0000FE00A480FF068F80190019B0093009B55
:10B10000002B05D0064A40F2C2310098FCF766F9E0
:10B110000023184603B05DF804FB00BF78A10700C8
:10B1200010A1070008B511F0B3FE00BF08BD000074
:10B1300008B511F0A5FF034683F00103DBB2002B35
:10B1400004D1044940F2D13049F04AFA11F008FF25
:10B1500000BF08BD10A1070008B511F085FF034628
:10B16000002B0DD10D494FF4767049F039FA07E004
:10B17000FFF71AFB034683F00103DBB2002B0BD170
:10B18000FFF71FFB034683F00103DBB2002BEFD177
:10B190000348FFF7B5FC00E000BF08BD10A10700A1
:10B1A0007CA1070000B583B082238DF8043001AB89
:10B1B0001846FFF7A5FC00BF03B05DF804FB0000D4
:10B1C00000B587B00190DD4B1B68002B04D1DC4932
:10B1D00040F2254049F004FAFCF79DFA0346052B9E
:10B1E00004D8D74940F22C4049F0FAF9019B1B786A
:10B1F000852B00F26A8201A252F823F015B50200F5
:10B2000073B5020001B6020095B50200C5B5020093
:10B2100029B6020039B60200CBB60200A1B6020080
:10B22000AFB60200BDB60200CBB60200CBB602003C
:10B23000CBB60200CBB602001BB60200CBB60200B2
:10B24000CBB60200CBB60200CBB60200CBB60200F2
:10B25000CBB60200CBB60200CBB60200CBB60200E2
:10B26000CBB60200CBB60200CBB60200CBB60200D2
:10B27000CBB60200CBB60200CBB60200CBB60200C2
:10B28000CBB60200CBB60200CBB60200CBB60200B2
:10B29000CBB60200CBB60200CBB60200CBB60200A2
:10B2A000CBB60200CBB60200CBB60200CBB6020092
:10B2B000CBB60200CBB60200CBB60200CBB6020082
:10B2C000CBB60200CBB60200CBB60200CBB6020072
:10B2D000CBB60200CBB60200CBB60200CBB6020062
:10B2E000CBB60200CBB60200CBB60200CBB6020052
:10B2F000CBB60200CBB60200CBB60200CBB6020042
:10B30000CBB60200CBB60200CBB60200CBB6020031
:10B31000CBB60200CBB60200CBB60200CBB6020021
:10B32000CBB60200CBB60200CBB60200CBB6020011
:10B33000CBB60200CBB60200CBB60200CBB6020001
:10B34000CBB60200CBB60200CBB60200CBB60200F1
:10B35000CBB60200CBB60200CBB60200CBB60200E1
:10B36000CBB60200CBB60200CBB60200CBB60200D1
:10B37000CBB60200CBB60200CBB60200CBB60200C1
:10B38000CBB60200CBB60200CBB60200CBB60200B1
:10B39000CBB60200CBB60200CBB60200CBB60200A1
:10B3A000CBB60200CBB60200CBB60200CBB6020091
:10B3B000CBB60200CBB60200CBB60200CBB6020081
:10B3C000CBB60200CBB60200CBB60200CBB6020071
:10B3D000CBB60200CBB60200CBB60200CBB6020061
:10B3E000CBB60200CBB60200CBB60200CBB6020051
:10B3F000CBB60200CBB60200CBB6020093B402007B
:10B4000015B4020059B40200C7B40200E7B4020048
:10B4100031B602004B48FFF761FB4A4800F07AFB67
:10B420000D20FFF74BFA00F099FC03F04AF8464B69
:10B430001B68002B03D1454B1B7A002B01D0012345
:10B4400000E0002303F00103DBB2184611F0A8FD71
:10B450000120FFF7B5FC45E100F080FC11F0D4FDC0
:10B460000020FFF7ADFC3A4800F054FB3848FFF7E6
:10B4700035FB0E20FFF722FAFFF79CFC0346184627
:10B48000FFF730FC0346002B00F0258105F076FF26
:10B4900021E1FFF78FFC0346072B0ED0072B10DCB2
:10B4A000052B02D0062B04D00BE00220FFF788FC0E
:10B4B00008E00820FFF784FC04E00220FFF780FC8E
:10B4C00000E000BF0EE1FFF775FC0346032B40F0E0
:10B4D000048111F0E9FD0346002B00F0FE800420FA
:10B4E000FFF76EFCF9E0FFF765FC0346032B07D17D
:10B4F00011F0DAFD0346002B02D00420FFF760FCB8
:10B5000011F00AFE0346002B00F0E9800620FFF749
:10B5100057FCE4E0FFF74EFC0346032B04D0FFF793
:10B5200049FC0346082B02D10A48FFF749FE0020D8
:10B53000FFF7C4F900F05EFA059016E0100C012048
:10B5400010A1070080A10700140C0120200C01208D
:10B5500084A1070088A1070001990598FFF73EF92B
:10B5600003900598FFF7E8F80590059B002BF3D1B1
:10B57000B8E000F0F3FB02F09BFF0220FFF720FC95
:10B580000120FFF79BF90198FFF7A8FA019800F056
:10B59000C1FAA7E0FFF70EFC0346082B05D10220F5
:10B5A000FFF70EFC11F012FE02E00520FFF708FC89
:10B5B0000320FFF783F90198FFF790FA019800F054
:10B5C000A9FA8FE00320FFF779F94848FFF786FAD8
:10B5D000464800F09FFAFFF7EDFB0346062B02D02A
:10B5E000082B04D007E00720FFF7EAFB07E0022062
:10B5F000FFF7E6FB03E00220FFF7E2FB72E071E0F9
:10B600000320FFF7DDFB0220FFF758F9019800F057
:10B6100081FA0198FFF762FA64E00F20FFF74EF914
:10B62000019800F077FA5DE00198FFF757FA59E0CA
:10B630000198FFF753FA55E0019B9B781846FFF7F6
:10B64000D3F90490049B1B68002B04D1284940F2D5
:10B65000025048F0C5FF049B5B68002B04D12449CD
:10B6600040F2035048F0BCFF049B5B68049A1268E8
:10B670000199104698470346002B32D0019B9B78D6
:10B6800003F00F03002B2CD0019B9B7803F00803E1
:10B69000002B26D1019B9B78184611F0ECFF20E08F
:10B6A0000820FFF70BF9019800F034FA1AE009209E
:10B6B000FFF704F9019800F02DFA13E00A20FFF7D4
:10B6C000FDF8019800F026FA0CE0094940F22650F6
:10B6D00048F086FF06E000BF04E000BF02E000BFC4
:10B6E00000E000BF00BF07B05DF804FB8CA10700BD
:10B6F00010A1070000B583B000230193394B1B68EC
:10B70000002B07D1384B39491846FEF7D2FE0346C5
:10B71000344A1360334B1B68002B32D0314B1B680B
:10B720009B88002B1ED02F4B1B68DB88B3F5006F66
:10B7300003D32C4B1B680022DA802A4B1B68DA8863
:10B74000511C89B2D9801346ADF80630254B1B68D1
:10B750009A88013A92B29A8001AB1846FFF730FD01
:10B7600001233AE01F4B1B681846FFF729FD1E4BCB
:10B770001E491846FEF7B6FE1A4B00221A60012336
:10B780002BE01B4B1B68002B26D000238DF80330C9
:10B790000DF103031846FBF771FF164B1B88B3F539
:10B7A000006F02D3134B00221A80124B1B885A1CC5
:10B7B00091B2104A1180ADF8063001210C48FCF717
:10B7C00054FC9DF803301846FBF76EFF01AB18469A
:10B7D000FFF7F6FC012300E00023184603B05DF8F4
:10B7E00004FB00BF2C0C0120680B0120300C012051
:10B7F000780B01207C0B012000B589B00190019BE2
:10B80000002B04D15A4940F26A5048F0E9FE019BEE
:10B810005B68002B04D1564940F26B5048F0E0FEC3
:10B82000019B5B681B68002B04D1514940F26C50AE
:10B8300048F0D6FE0198FEF762FF03461B68002B16
:10B8400004D04B4940F26D5048F0CAFE11F00CFC98
:10B85000034683F00103DBB2002B04D011F0F8FBA8
:10B860000346002B04D1424940F2715048F0B8FE23
:10B8700000238DF81F301CE000238DF81E300BE0F4
:10B880000398FEF735FF03461846FFF7E9F803462D
:10B89000002B01D0112367E09DF81E305A1C8DF853
:10B8A0001E2019460598FEF7FDFE0390039B002B12
:10B8B000E6D19DF81F305A1C8DF81F2019460198BB
:10B8C000FEF7B8FE0590059B002BD5D100238DF81F
:10B8D0001F3018E000238DF81D3007E00498FEF7B4
:10B8E00007FF034601991846FFF7CAF89DF81D3077
:10B8F0005A1C8DF81D2019460598FEF7D3FE0490BA
:10B90000049B002BEAD19DF81F305A1C8DF81F2094
:10B9100019460198FEF78EFE0590059B002BD9D1A4
:10B92000144B069310E0069B1B68019A9A4204D1BF
:10B930000F4940F2975048F053FE069B1B6818468B
:10B94000FEF7DDFE03460693069B1B68002BEAD13B
:10B95000069B019A1A600B238DF8083002AB19463A
:10B960000198FEF73BFF0346184609B05DF804FB5B
:10B9700010A10700100C0120044B1B78002B14BFF2
:10B9800001230023DBB21846704700BF1D0C0120C5
:10B9900000B583B003468DF807309DF8073003F0FB
:10B9A0000803002B09D19DF80730184611F0ABFEB3
:10B9B0009DF80730184611F070FE9DF807301846C4
:10B9C00011F082FC00BF03B05DF804FB00B583B04A
:10B9D00003468DF807309DF80730184611F0CCFC6F
:10B9E00000BF03B05DF804FB014B1B6818467047AD
:10B9F000100C0120014B1B6818467047140C0120E5
:10BA0000014B1B6818467047180C012000B587B021
:10BA1000034600918DF80730FFF7E6FF059031E00F
:10BA20000598FEF7FFFD03468DF8123000238DF8D0
:10BA300013301DE09DF8133019460598FEF7FAFD06
:10BA400003900398FEF720FE03461A469DF8073040
:10BA5000934208D1009B002B03D0009B9DF813203C
:10BA60001A70059B12E09DF8133001338DF81330E6
:10BA70009DF813209DF812309A42DBD30598FEF70B
:10BA800045FE0590059B002BCAD10023184607B040
:10BA90005DF804FB00B585B003900B4601928DF86C
:10BAA0000B3001990398FEF799FE0346184605B03E
:10BAB0005DF804FB00B585B0034600918DF80730B2
:10BAC0009DF90730002B05DA9DF8073003F00F03CE
:10BAD000082B09DD9DF90730002B16DB9DF8073098
:10BAE00003F00F03082B10DC9DF807301846FEF713
:10BAF0007BFF03461B680393039B002B05D0009933
:10BB00000398FEF76BFE034600E01023184605B0CD
:10BB10005DF804FB00B585B00190FFF765FF039069
:10BB200007E001990398FEF759FE0398FEF7EEFD32
:10BB30000390039B002BF4D100BF00BF05B05DF85C
:10BB400004FB00B585B0019006230293FFF74CFF7C
:10BB500003900BE001990398FEF740FE0290029BD0
:10BB6000062B07D10398FEF7D1FD0390039B002B12
:10BB7000F0D100E000BF029B184605B05DF804FB61
:10BB800000B583B0034600918DF807309DF807306B
:10BB9000184611F086FB034683F00103DBB2002B4D
:10BBA00001D008230CE0084B1B78022B01D008239E
:10BBB00006E09DF807300099184611F0FDFB03469A
:10BBC000184603B05DF804FB1C0C012000B583B0DF
:10BBD000034600918DF807309DF80730184611F0A4
:10BBE00060FB034683F00103DBB2002B01D0082386
:10BBF0000CE0084B1B78022B01D0082306E09DF8CF
:10BC000007300099184611F0ABFC0346184603B004
:10BC10005DF804FB1C0C012000B585B001900B46BB
:10BC20008DF8033013468DF8023006230393019BF1
:10BC30005B689B68002B09D0019B5B689B689DF843
:10BC400002209DF80310019898470390039B062B50
:10BC500008D19DF802209DF8033019460198FFF79E
:10BC6000F9F80390039B184605B05DF804FB00B596
:10BC700083B001900B468DF80330019B5B68DB6855
:10BC8000002B07D0019B5B68DB689DF80320114601
:10BC9000019898479DF8033019460198FFF726F957
:10BCA00000BF03B05DF804FB00B585B001900B4602
:10BCB0008DF8033000238DF80F30019B5B681B6902
:10BCC000002B0AD0019B5B681B699DF8032011467D
:10BCD0000198984703468DF80F309DF80F301846AD
:10BCE00005B05DF804FB000000B585B0FFF77CFEF1
:10BCF000039028E00398FEF795FC03468DF80A3080
:10BD000000238DF80B3014E09DF80B30002219460B
:10BD10000398FFF781FF0190019B002B04D00E498F
:10BD200040F26A7048F05CFC9DF80B3001338DF8EE
:10BD30000B309DF80B209DF80A309A42E4D303980B
:10BD4000FEF7E4FC0390039B002BD3D100BF00BFA0
:10BD500005B05DF804FB00BF10A1070000B583B07B
:10BD6000FFF742FE01901EE00198FEF75BFC0346E0
:10BD70008DF8023000238DF803300AE09DF803307F
:10BD800019460198FFF773FF9DF8033001338DF8D2
:10BD900003309DF803209DF802309A42EED30198BB
:10BDA000FEF7B4FC0190019B002BDDD100BF00BF6A
:10BDB00003B05DF804FB82B003468DF807309DF8B0
:10BDC000073003F01F03DBB2184602B0704782B0A1
:10BDD00003468DF807309DF807305B0903F0030335
:10BDE000DBB2184602B0704782B003468DF80730C8
:10BDF0009DF80730DB09DBB2184602B0704782B00D
:10BE00000190019B1B7A184602B0704700B585B0BF
:10BE100001900B468DF80330019B002B04D10F4994
:10BE20004FF4887048F0DCFB0198FFF7E8FF034609
:10BE30001A469DF80330934201D3002309E0019B89
:10BE4000093303939DF8032013465B001344039AC0
:10BE50001344184605B05DF804FB00BFD0A10700ED
:10BE600082B00190019B1B78184602B0704782B0E7
:10BE70000190019B5B78184602B0704700B585B011
:10BE800001900B468DF80330019B002B04D10D4926
:10BE900040F2431048F0A4FB019B5B789DF803201F
:10BEA0009A4201D3002309E0019B9B781A46019B2B
:10BEB000134403939DF80330039A1344184605B0C6
:10BEC0005DF804FBD0A1070082B00190019B1B78B4
:10BED000184602B0704782B00190019B184602B02C
:10BEE0007047000000B583B00190019B002B03D187
:10BEF0000449522048F074FB019B184603B05DF8DA
:10BF000004FB00BF14A2070000B583B00190019BA1
:10BF1000002B03D109495F2048F062FB019B1B689D
:10BF2000002B03D10549602048F05AFB019B1B6898
:10BF30000C33184603B05DF804FB00BF14A20700E1
:10BF400000B585B001900B468DF803300198FFF7DE
:10BF5000C9FF0390039BDB69002B06D0039BDB69C1
:10BF60009DF8032011460198984700BF05B05DF881
:10BF700004FB00B585B0019000210198FFF746FF52
:10BF8000039000210398FFF779FF02900298FFF7D2
:10BF90009BFF0346184605B05DF804FB00B585B06D
:10BFA000019001210198FFF731FF039000210398D0
:10BFB000FFF764FF02900298FFF786FF03461846DA
:10BFC00005B05DF804FB00B585B001900121019832
:10BFD000FFF71CFF039001210398FFF74FFF02902A
:10BFE0000298FFF771FF0346184605B05DF804FBA1
:10BFF00000B589B003900291029B5B781846FFF769
:10C00000DAFE0346012B28D1029B9B78062B24D114
:10C010000023059304AB184602F0CEFA0790029B6A
:10C020001979029BDA7805AB0093079B0398FEF71A
:10C030005BFC0690069B052B0FD0059B3F2B03D97D
:10C040000849C92048F0CCFA029B0133059A0799A8
:10C05000184602F03FFA034600E00623184609B0EE
:10C060005DF804FB14A2070082B00190009100BFAC
:10C070000623184602B0704700B585B001900091C4
:10C080000198FFF72FFF03900398FFF73DFF029001
:10C09000009B9B78212B11D1009BB3F807309BB2FA
:10C0A000072B01D006230BE0009B581C029B0C338E
:10C0B0000722194602F00EFA034601E000BF0623EC
:10C0C000184605B05DF804FB00B585B00346009145
:10C0D0008DF807309DF80730002B01D0032316E0C0
:10C0E000009B03930398FFF70FFF0290029B1B78BE
:10C0F000202B0BD1029B03F10C00029B0233072281
:10C1000019464CF0E3F800BF002300E00623184670
:10C1100005B05DF804FB000000B58DB00190009102
:10C120000198FFF7DFFE0A900A98FFF7EDFE0990ED
:10C13000009B9A78099B1A70009BB3F807309BB25A
:10C14000DAB2099B5A70099B02330693099B5B780C
:10C1500007930023089300238DF817300DF1170380
:10C160001846FBF78BFA06AB19460020FFF708FDCF
:10C170000B900B9B002B09D1094B03930A9B049353
:10C1800003AB1946002002F0F9F90B909DF8173027
:10C190001846FBF789FA0B9B18460DB05DF804FBB7
:10C1A000C9C0020000B585B001900198FFF79AFE62
:10C1B00003900398FFF7A8FE0290029B00229A8248
:10C1C000029B00229A61029B00221A62029B0022BB
:10C1D000DA66029B00221A67029B00225A67029BC2
:10C1E00000229A67029B03F12802029B9A6600BF15
:10C1F00005B05DF804FB00B587B00190009101988F
:10C20000FFF770FE05900598FFF77EFE0490009BF7
:10C210009B78202B04D0222B10D000BF06237BE07C
:10C22000009BB3F807309BB2072B01D0062373E0C5
:10C2300000990198FFF770FF03466DE0009BB3F88B
:10C2400007309BB2002B01D0062365E0049B9B8A3C
:10C2500003F00103002B14BF012300238DF80F30DE
:10C26000009BB3F803309AB2049B9A82049B9B8A8A
:10C2700003F00103002B14BF012300238DF80E30BF
:10C280009DF80F209DF80E309A4201D1002343E023
:10C290009DF80E30002B01D0022300E003238DF81F
:10C2A0000D309DF80D3019460198FFF749FE9DF8B5
:10C2B0000E3083F00103DBB2002B2CD00198FFF786
:10C2C0006DFE03468DF80C309DF80C3018460FF0CB
:10C2D00033FE0198FFF777FE03468DF80C309DF88A
:10C2E0000C3018460FF028FE049B00229A61049B34
:10C2F00000221A62049B0022DA66049B00221A675D
:10C30000049B00225A67049B00229A67049B03F156
:10C310002802049B9A660023184607B05DF804FBC8
:10C3200000B583B001900091019B002B04D12449FA
:10C330004FF4E47048F054F9009B002B04D12049DD
:10C3400040F2C91048F04CF9009B5B781846FFF7A3
:10C350004BFD0346012B16D1009B5B781846FFF777
:10C3600036FD0346002B02D0012B06D022E00099B7
:10C370000198FFF73DFE03461DE000990198FFF785
:10C380007BFE034617E0009B5B781846FFF71FFD16
:10C390000346002B02D0012B06D00BE00099019838
:10C3A000FFF762FE034606E000990198FFF723FFBE
:10C3B000034600E00623184603B05DF804FB00BF07
:10C3C00014A2070086B00390029101920093029B91
:10C3D0000593039B009A5A60059BDB69009A9A4279
:10C3E0001DD8059B9A69039B1A60059B9A69009B5F
:10C3F0001A44059B9A61059B1A6F009B1A44059B82
:10C400001A67059BDA69009BD21A059BDA61059BC6
:10C41000DB69002B14BF01230023DBB208E0059B7E
:10C4200003F12802039B1A60059B009A9A67002378
:10C43000184606B07047000000B58BB00190019817
:10C44000FFF750FD08900898FFF75EFD07900198F0
:10C45000FFF7B9FD03468DF81B306C4B0393079B28
:10C460000493079BDB69002B26D1079B1A6F079B60
:10C470005A67079B00221A67079B0022DA66079B10
:10C480001B6A002B13D0079B079A1833203292E8BF
:10C49000030083E80300079B00221A6203AA9DF8A9
:10C4A0001B3011461846FFF791FB0346A9E0079B96
:10C4B00000229A610023A4E0079B9B6F0593059BD4
:10C4C0000993079BDB69059A9A4202D9079BDB69AE
:10C4D0000993079B9869079B2833099A19464BF0E3
:10C4E000F5FE079B1A6F099B1A44079B5A67079B27
:10C4F00000221A67059A099BD21A079BDA66079BE6
:10C5000003F12802099B1A44079B9A66079B1B6A42
:10C51000002B65D0079B079A1833203292E803005E
:10C5200083E80300079B00221A6254E0079BDA6E3F
:10C53000079BDB699A4232D3079B9869079B996EE8
:10C54000079BDB691A464BF0C1FE079BDA6E079B1F
:10C55000DB69D21A079BDA66079B9A6E079BDB6939
:10C560001A44079B9A66079BDA69079B5A67002162
:10C570000198FFF7E5FC079B1B6A002B0BD0079B7C
:10C58000079A1833203292E8030083E80300079BE0
:10C5900000221A621FE0079B00229A6123E0079B9A
:10C5A0009869079B996E079BDB6E1A464BF08EFECF
:10C5B000079BDA6E079B1A67079BDA69079BDB6E9E
:10C5C000D21A079BDA61079B9A69079BDB6E1A44B4
:10C5D000079B9A6107E0079BDB6E002BA6D102E068
:10C5E000079B00229A61079B9B69002B08D003AA36
:10C5F0009DF81B3011461846FFF7E8FA034600E0A5
:10C60000002318460BB05DF804FB00BFC5C3020051
:10C6100000B585B0019000910198FFF7AAFC034690
:10C620001A46009B9B789A4201D1002334E0009B7C
:10C630009B785BB2002B10DA009BDB78002B02D0DA
:10C64000032B06D007E001210198FFF779FC0023B6
:10C6500022E0002320E003231EE0009B9B785BB2D6
:10C66000002B18DB009BDB78032B10D0032B10DC96
:10C67000002B02D0012B0AD00BE00198FFF7DCFE63
:10C68000039000210198FFF75BFC039B04E000236B
:10C6900002E0032300E00623184605B05DF804FB22
:10C6A00000B585B001900091019B002B04D12B496E
:10C6B00040F2DD2047F094FF009B002B04D1274976
:10C6C00040F2DE2047F08CFF00230393009B1B7891
:10C6D0000E2B39D801A252F823F000BF4FC7020039
:10C6E00019C702004FC702004FC7020049C7020026
:10C6F00021C702002DC7020049C7020049C7020036
:10C7000039C7020049C702004FC702004FC70200E5
:10C710004FC702004FC702000198FFF743FD17E023
:10C7200000990198FFF7FCFD039011E00099019832
:10C73000FFF76EFF03900BE003210198FFF700FC69
:10C740000198FFF72FFD03E00623039300E000BFED
:10C75000039B184605B05DF804FB00BF14A2070058
:10C7600010B58AB003900291019200930298FFF7EE
:10C7700046FB03461A46C34B1A700298FFF7B2FBFA
:10C780000990039B002B04D1BF494FF4447047F03C
:10C7900027FF019B059300230693009B0793039BB0
:10C7A0000893089B1B68002B00F00C81B3F5647F95
:10C7B00080F0D98640F213329342C0F0D486A3F2BF
:10C7C00013337C2B00F2CF8601A252F823F000BF76
:10C7D000E3C9020019CA020051CA02008FCA02004E
:10C7E000C5CA0200FBCA020033CB020069CB0200BB
:10C7F00067D5020067D5020067D5020067D5020041
:10C8000067D5020067D50200A9CB0200DFCB02008A
:10C8100067D5020067D5020067D5020067D5020020
:10C8200031CC020067CC0200A7CC020067D5020021
:10C8300067D5020067D50200F1CC020027CD0200C7
:10C840005FCD020067D5020067D5020067D5020000
:10C8500067D50200A9CD0200E7CD02001BCE020081
:10C8600067D5020067D5020067D5020067D50200D0
:10C8700067D5020067D502005BCE020067D50200D3
:10C8800067D5020067D5020067D50200A5CE020079
:10C89000D9CE02000DCF020041CF020075CF0200B9
:10C8A00067D5020067D50200A9CF0200DDCF0200E4
:10C8B00011D0020045D0020083D0020067D50200EB
:10C8C00067D50200B7D00200EBD002001FD10200F2
:10C8D00053D1020067D5020067D5020087D102005C
:10C8E000BBD10200EFD1020025D202005BD20200D0
:10C8F00067D5020067D5020067D5020067D5020040
:10C9000067D5020067D5020067D5020067D502002F
:10C9100067D5020067D5020067D5020067D502001F
:10C9200067D5020067D5020067D5020067D502000F
:10C9300067D5020067D5020067D50200C9D20200A0
:10C94000FDD2020067D5020067D5020067D502005C
:10C9500051D3020067D5020067D5020067D50200F7
:10C9600067D5020099D3020067D5020067D502009F
:10C9700067D5020067D50200E3D3020067D5020045
:10C9800067D5020067D5020067D5020067D50200AF
:10C9900067D5020023D4020057D4020067D50200F5
:10C9A00067D5020067D5020067D50200A3D4020054
:10C9B00067D5020067D5020067D5020067D502007F
:10C9C00003D50200089B08221A71069A079B9A4217
:10C9D00006D3089B40F213321A60012300F0C7BD52
:10C9E00000BF059B002B05D0089A0599069B0B44B8
:10C9F00012791A70069B01330693089B0B221A7159
:10CA0000069A079B9A4206D3089B4FF445721A6018
:10CA1000012300F0ACBD00BF059B002B05D0089A98
:10CA20000599069B0B4412791A70069B01330693F5
:10CA3000089B099A127D1A71069A079B9A4206D39F
:10CA4000089B40F215321A60012300F090BD00BF30
:10CA5000059B002B05D0089A0599069B0B4412797B
:10CA60001A70069B01330693089B02221A71069ADC
:10CA7000079B9A420AD3089B40F216321A600123A0
:10CA800000F075BD340C012014A2070000BF059B07
:10CA9000002B05D0089A0599069B0B4412791A7051
:10CAA000069B01330693089B02221A71069A079B84
:10CAB0009A4206D3089B40F217321A60012300F015
:10CAC00056BD00BF059B002B05D0089A0599069B13
:10CAD0000B4412791A70069B01330693089B0222BD
